{
  "_format": "hh-sol-artifact-1",
  "contractName": "MultiMerkleDistributorV2",
  "sourceName": "contracts/MultiMerkleDistributorV2.sol",
  "abi": [
    {
      "inputs": [
        {
          "internalType": "address",
          "name": "_questBoard",
          "type": "address"
        }
      ],
      "stateMutability": "nonpayable",
      "type": "constructor"
    },
    {
      "inputs": [
        {
          "internalType": "address",
          "name": "target",
          "type": "address"
        }
      ],
      "name": "AddressEmptyCode",
      "type": "error"
    },
    {
      "inputs": [
        {
          "internalType": "address",
          "name": "account",
          "type": "address"
        }
      ],
      "name": "AddressInsufficientBalance",
      "type": "error"
    },
    {
      "inputs": [],
      "name": "AddressZero",
      "type": "error"
    },
    {
      "inputs": [],
      "name": "AlreadyClaimed",
      "type": "error"
    },
    {
      "inputs": [],
      "name": "CallerNotAllowed",
      "type": "error"
    },
    {
      "inputs": [],
      "name": "CallerNotPendingOwner",
      "type": "error"
    },
    {
      "inputs": [],
      "name": "CannotBeOwner",
      "type": "error"
    },
    {
      "inputs": [],
      "name": "CannotRecoverToken",
      "type": "error"
    },
    {
      "inputs": [],
      "name": "EmptyMerkleRoot",
      "type": "error"
    },
    {
      "inputs": [],
      "name": "EmptyParameters",
      "type": "error"
    },
    {
      "inputs": [],
      "name": "FailedInnerCall",
      "type": "error"
    },
    {
      "inputs": [],
      "name": "IncorrectPeriod",
      "type": "error"
    },
    {
      "inputs": [],
      "name": "IncorrectQuestID",
      "type": "error"
    },
    {
      "inputs": [],
      "name": "IncorrectRewardAmount",
      "type": "error"
    },
    {
      "inputs": [],
      "name": "InvalidProof",
      "type": "error"
    },
    {
      "inputs": [],
      "name": "MerkleRootNotUpdated",
      "type": "error"
    },
    {
      "inputs": [],
      "name": "NullAmount",
      "type": "error"
    },
    {
      "inputs": [
        {
          "internalType": "address",
          "name": "owner",
          "type": "address"
        }
      ],
      "name": "OwnableInvalidOwner",
      "type": "error"
    },
    {
      "inputs": [
        {
          "internalType": "address",
          "name": "account",
          "type": "address"
        }
      ],
      "name": "OwnableUnauthorizedAccount",
      "type": "error"
    },
    {
      "inputs": [],
      "name": "PeriodAlreadyUpdated",
      "type": "error"
    },
    {
      "inputs": [],
      "name": "PeriodNotClosed",
      "type": "error"
    },
    {
      "inputs": [],
      "name": "PeriodNotListed",
      "type": "error"
    },
    {
      "inputs": [],
      "name": "QuestAlreadyListed",
      "type": "error"
    },
    {
      "inputs": [],
      "name": "QuestNotListed",
      "type": "error"
    },
    {
      "inputs": [],
      "name": "ReentrancyGuardReentrantCall",
      "type": "error"
    },
    {
      "inputs": [
        {
          "internalType": "address",
          "name": "token",
          "type": "address"
        }
      ],
      "name": "SafeERC20FailedOperation",
      "type": "error"
    },
    {
      "inputs": [],
      "name": "TokenNotWhitelisted",
      "type": "error"
    },
    {
      "anonymous": false,
      "inputs": [
        {
          "indexed": true,
          "internalType": "uint256",
          "name": "questID",
          "type": "uint256"
        },
        {
          "indexed": true,
          "internalType": "uint256",
          "name": "period",
          "type": "uint256"
        },
        {
          "indexed": false,
          "internalType": "uint256",
          "name": "index",
          "type": "uint256"
        },
        {
          "indexed": false,
          "internalType": "uint256",
          "name": "amount",
          "type": "uint256"
        },
        {
          "indexed": false,
          "internalType": "address",
          "name": "rewardToken",
          "type": "address"
        },
        {
          "indexed": true,
          "internalType": "address",
          "name": "account",
          "type": "address"
        }
      ],
      "name": "Claimed",
      "type": "event"
    },
    {
      "anonymous": false,
      "inputs": [
        {
          "indexed": true,
          "internalType": "address",
          "name": "oldCreator",
          "type": "address"
        },
        {
          "indexed": true,
          "internalType": "address",
          "name": "newCreator",
          "type": "address"
        }
      ],
      "name": "LootCreatorUpdated",
      "type": "event"
    },
    {
      "anonymous": false,
      "inputs": [
        {
          "indexed": true,
          "internalType": "address",
          "name": "previousPendingOwner",
          "type": "address"
        },
        {
          "indexed": true,
          "internalType": "address",
          "name": "newPendingOwner",
          "type": "address"
        }
      ],
      "name": "NewPendingOwner",
      "type": "event"
    },
    {
      "anonymous": false,
      "inputs": [
        {
          "indexed": true,
          "internalType": "uint256",
          "name": "questID",
          "type": "uint256"
        },
        {
          "indexed": false,
          "internalType": "address",
          "name": "rewardToken",
          "type": "address"
        }
      ],
      "name": "NewQuest",
      "type": "event"
    },
    {
      "anonymous": false,
      "inputs": [
        {
          "indexed": true,
          "internalType": "address",
          "name": "previousOwner",
          "type": "address"
        },
        {
          "indexed": true,
          "internalType": "address",
          "name": "newOwner",
          "type": "address"
        }
      ],
      "name": "OwnershipTransferred",
      "type": "event"
    },
    {
      "anonymous": false,
      "inputs": [
        {
          "indexed": true,
          "internalType": "uint256",
          "name": "questID",
          "type": "uint256"
        },
        {
          "indexed": true,
          "internalType": "uint256",
          "name": "period",
          "type": "uint256"
        },
        {
          "indexed": false,
          "internalType": "bytes32",
          "name": "merkleRoot",
          "type": "bytes32"
        }
      ],
      "name": "QuestPeriodUpdated",
      "type": "event"
    },
    {
      "inputs": [],
      "name": "acceptOwnership",
      "outputs": [],
      "stateMutability": "nonpayable",
      "type": "function"
    },
    {
      "inputs": [
        {
          "internalType": "uint256",
          "name": "questID",
          "type": "uint256"
        },
        {
          "internalType": "address",
          "name": "token",
          "type": "address"
        }
      ],
      "name": "addQuest",
      "outputs": [
        {
          "internalType": "bool",
          "name": "",
          "type": "bool"
        }
      ],
      "stateMutability": "nonpayable",
      "type": "function"
    },
    {
      "inputs": [
        {
          "internalType": "uint256",
          "name": "questID",
          "type": "uint256"
        },
        {
          "internalType": "uint256",
          "name": "period",
          "type": "uint256"
        },
        {
          "internalType": "uint256",
          "name": "totalRewardAmount",
          "type": "uint256"
        }
      ],
      "name": "addQuestPeriod",
      "outputs": [
        {
          "internalType": "bool",
          "name": "",
          "type": "bool"
        }
      ],
      "stateMutability": "nonpayable",
      "type": "function"
    },
    {
      "inputs": [
        {
          "internalType": "uint256",
          "name": "questID",
          "type": "uint256"
        },
        {
          "internalType": "uint256",
          "name": "period",
          "type": "uint256"
        },
        {
          "internalType": "uint256",
          "name": "index",
          "type": "uint256"
        },
        {
          "internalType": "address",
          "name": "account",
          "type": "address"
        },
        {
          "internalType": "uint256",
          "name": "amount",
          "type": "uint256"
        },
        {
          "internalType": "bytes32[]",
          "name": "merkleProof",
          "type": "bytes32[]"
        }
      ],
      "name": "claim",
      "outputs": [],
      "stateMutability": "nonpayable",
      "type": "function"
    },
    {
      "inputs": [
        {
          "internalType": "address",
          "name": "account",
          "type": "address"
        },
        {
          "internalType": "uint256",
          "name": "questID",
          "type": "uint256"
        },
        {
          "components": [
            {
              "internalType": "uint256",
              "name": "questID",
              "type": "uint256"
            },
            {
              "internalType": "uint256",
              "name": "period",
              "type": "uint256"
            },
            {
              "internalType": "uint256",
              "name": "index",
              "type": "uint256"
            },
            {
              "internalType": "uint256",
              "name": "amount",
              "type": "uint256"
            },
            {
              "internalType": "bytes32[]",
              "name": "merkleProof",
              "type": "bytes32[]"
            }
          ],
          "internalType": "struct MultiMerkleDistributorV2.ClaimParams[]",
          "name": "claims",
          "type": "tuple[]"
        }
      ],
      "name": "claimQuest",
      "outputs": [],
      "stateMutability": "nonpayable",
      "type": "function"
    },
    {
      "inputs": [
        {
          "internalType": "uint256",
          "name": "questID",
          "type": "uint256"
        },
        {
          "internalType": "uint256",
          "name": "period",
          "type": "uint256"
        },
        {
          "internalType": "uint256",
          "name": "addedRewardAmount",
          "type": "uint256"
        },
        {
          "internalType": "bytes32",
          "name": "merkleRoot",
          "type": "bytes32"
        }
      ],
      "name": "emergencyUpdateQuestPeriod",
      "outputs": [
        {
          "internalType": "bool",
          "name": "",
          "type": "bool"
        }
      ],
      "stateMutability": "nonpayable",
      "type": "function"
    },
    {
      "inputs": [
        {
          "internalType": "uint256",
          "name": "questID",
          "type": "uint256"
        },
        {
          "internalType": "uint256",
          "name": "period",
          "type": "uint256"
        },
        {
          "internalType": "uint256",
          "name": "newTotalRewardAmount",
          "type": "uint256"
        }
      ],
      "name": "fixQuestPeriod",
      "outputs": [
        {
          "internalType": "bool",
          "name": "",
          "type": "bool"
        }
      ],
      "stateMutability": "nonpayable",
      "type": "function"
    },
    {
      "inputs": [
        {
          "internalType": "uint256",
          "name": "questID",
          "type": "uint256"
        }
      ],
      "name": "getClosedPeriodsByQuests",
      "outputs": [
        {
          "internalType": "uint256[]",
          "name": "",
          "type": "uint256[]"
        }
      ],
      "stateMutability": "view",
      "type": "function"
    },
    {
      "inputs": [
        {
          "internalType": "uint256",
          "name": "questID",
          "type": "uint256"
        },
        {
          "internalType": "uint256",
          "name": "period",
          "type": "uint256"
        },
        {
          "internalType": "uint256",
          "name": "index",
          "type": "uint256"
        }
      ],
      "name": "isClaimed",
      "outputs": [
        {
          "internalType": "bool",
          "name": "",
          "type": "bool"
        }
      ],
      "stateMutability": "view",
      "type": "function"
    },
    {
      "inputs": [],
      "name": "lootCreator",
      "outputs": [
        {
          "internalType": "address",
          "name": "",
          "type": "address"
        }
      ],
      "stateMutability": "view",
      "type": "function"
    },
    {
      "inputs": [
        {
          "internalType": "address",
          "name": "account",
          "type": "address"
        },
        {
          "components": [
            {
              "internalType": "uint256",
              "name": "questID",
              "type": "uint256"
            },
            {
              "internalType": "uint256",
              "name": "period",
              "type": "uint256"
            },
            {
              "internalType": "uint256",
              "name": "index",
              "type": "uint256"
            },
            {
              "internalType": "uint256",
              "name": "amount",
              "type": "uint256"
            },
            {
              "internalType": "bytes32[]",
              "name": "merkleProof",
              "type": "bytes32[]"
            }
          ],
          "internalType": "struct MultiMerkleDistributorV2.ClaimParams[]",
          "name": "claims",
          "type": "tuple[]"
        }
      ],
      "name": "multiClaim",
      "outputs": [],
      "stateMutability": "nonpayable",
      "type": "function"
    },
    {
      "inputs": [],
      "name": "owner",
      "outputs": [
        {
          "internalType": "address",
          "name": "",
          "type": "address"
        }
      ],
      "stateMutability": "view",
      "type": "function"
    },
    {
      "inputs": [],
      "name": "pendingOwner",
      "outputs": [
        {
          "internalType": "address",
          "name": "",
          "type": "address"
        }
      ],
      "stateMutability": "view",
      "type": "function"
    },
    {
      "inputs": [],
      "name": "questBoard",
      "outputs": [
        {
          "internalType": "address",
          "name": "",
          "type": "address"
        }
      ],
      "stateMutability": "view",
      "type": "function"
    },
    {
      "inputs": [
        {
          "internalType": "uint256",
          "name": "",
          "type": "uint256"
        },
        {
          "internalType": "uint256",
          "name": "",
          "type": "uint256"
        }
      ],
      "name": "questClosedPeriods",
      "outputs": [
        {
          "internalType": "uint256",
          "name": "",
          "type": "uint256"
        }
      ],
      "stateMutability": "view",
      "type": "function"
    },
    {
      "inputs": [
        {
          "internalType": "uint256",
          "name": "",
          "type": "uint256"
        },
        {
          "internalType": "uint256",
          "name": "",
          "type": "uint256"
        }
      ],
      "name": "questMerkleRootPerPeriod",
      "outputs": [
        {
          "internalType": "bytes32",
          "name": "",
          "type": "bytes32"
        }
      ],
      "stateMutability": "view",
      "type": "function"
    },
    {
      "inputs": [
        {
          "internalType": "uint256",
          "name": "",
          "type": "uint256"
        }
      ],
      "name": "questRewardToken",
      "outputs": [
        {
          "internalType": "address",
          "name": "",
          "type": "address"
        }
      ],
      "stateMutability": "view",
      "type": "function"
    },
    {
      "inputs": [
        {
          "internalType": "uint256",
          "name": "",
          "type": "uint256"
        },
        {
          "internalType": "uint256",
          "name": "",
          "type": "uint256"
        }
      ],
      "name": "questRewardsPerPeriod",
      "outputs": [
        {
          "internalType": "uint256",
          "name": "",
          "type": "uint256"
        }
      ],
      "stateMutability": "view",
      "type": "function"
    },
    {
      "inputs": [
        {
          "internalType": "address",
          "name": "token",
          "type": "address"
        }
      ],
      "name": "recoverERC20",
      "outputs": [
        {
          "internalType": "bool",
          "name": "",
          "type": "bool"
        }
      ],
      "stateMutability": "nonpayable",
      "type": "function"
    },
    {
      "inputs": [],
      "name": "renounceOwnership",
      "outputs": [],
      "stateMutability": "nonpayable",
      "type": "function"
    },
    {
      "inputs": [
        {
          "internalType": "address",
          "name": "",
          "type": "address"
        }
      ],
      "name": "rewardTokens",
      "outputs": [
        {
          "internalType": "bool",
          "name": "",
          "type": "bool"
        }
      ],
      "stateMutability": "view",
      "type": "function"
    },
    {
      "inputs": [
        {
          "internalType": "address",
          "name": "_lootCreator",
          "type": "address"
        }
      ],
      "name": "setLootCreator",
      "outputs": [],
      "stateMutability": "nonpayable",
      "type": "function"
    },
    {
      "inputs": [
        {
          "internalType": "address",
          "name": "newOwner",
          "type": "address"
        }
      ],
      "name": "transferOwnership",
      "outputs": [],
      "stateMutability": "nonpayable",
      "type": "function"
    },
    {
      "inputs": [
        {
          "internalType": "uint256",
          "name": "questID",
          "type": "uint256"
        },
        {
          "internalType": "uint256",
          "name": "period",
          "type": "uint256"
        },
        {
          "internalType": "uint256",
          "name": "totalAmount",
          "type": "uint256"
        },
        {
          "internalType": "bytes32",
          "name": "merkleRoot",
          "type": "bytes32"
        }
      ],
      "name": "updateQuestPeriod",
      "outputs": [
        {
          "internalType": "bool",
          "name": "",
          "type": "bool"
        }
      ],
      "stateMutability": "nonpayable",
      "type": "function"
    }
  ],
  "bytecode": "0x60a0346200010757601f6200295d38819003918201601f19168301916001600160401b038311848410176200010c578084926020946040528339810103126200010757516001600160a01b0380821680830362000107573315620000ee576000543360018060a01b0319821617600055604051923391167f8be0079c531659141344cd1fd0a4f28419497f9722a3daafe3b4186f6b6457e0600080a3600160025515620000df575060805260405161283a90816200012382396080518181816103350152818161080601528181611271015281816115100152611e150152f35b639fabe1c160e01b8152600490fd5b604051631e4fbdf760e01b815260006004820152602490fd5b600080fd5b634e487b7160e01b600052604160045260246000fdfe6040608081526004908136101561001557600080fd5b600091823560e01c80630c3a0fff14611e395780631312279814611dca57806317fea75c14611c185780633a3e6a77146117a757806346fe84e9146116eb578063493b952c146116bf57806354ec46de1461166c57806358ad4064146114b7578063627614ac14611465578063657c5e8c1461125d5780636a9b8ce514610d205780636ec803bb14610cdf578063715018a614610c43578063726f3f2514610b9657806375d0d380146107db57806379ba5097146106dd5780638da5cb5b1461068c578063933803581461066057806395861d5c146106055780639e8c708e1461049d578063c25a4d9e146102f3578063e30c39781461029c578063f2fde38b146101915763f5ab16cc1461012957600080fd5b3461018d5760207ffffffffffffffffffffffffffffffffffffffffffffffffffffffffffffffffc36011261018d578160209360ff9273ffffffffffffffffffffffffffffffffffffffff61017c612130565b168252855220541690519015158152f35b8280fd5b503461018d5760207ffffffffffffffffffffffffffffffffffffffffffffffffffffffffffffffffc36011261018d576101c9612130565b906101d2612278565b73ffffffffffffffffffffffffffffffffffffffff80921692831561027657828554168414610250575050600154827fffffffffffffffffffffffff0000000000000000000000000000000000000000821617600155167fb3d55174552271a4f1aaf36b72f50381e892171636b3fb5447fe00e995e7a37b8380a380f35b517fd5e889bf000000000000000000000000000000000000000000000000000000008152fd5b517f9fabe1c1000000000000000000000000000000000000000000000000000000008152fd5b5050346102ef57817ffffffffffffffffffffffffffffffffffffffffffffffffffffffffffffffffc3601126102ef5760209073ffffffffffffffffffffffffffffffffffffffff600154169051908152f35b5080fd5b50913461049a57610303366121f9565b929162093a8080920482810292818404149015171561046e5773ffffffffffffffffffffffffffffffffffffffff95867f0000000000000000000000000000000000000000000000000000000000000000163303610447578184526020966003885286852054161561042057818452600787528584208385528752858420546103f95782156103d35784156103ac57508252600785528382209082528452829020555160018152f35b85517fe5a74490000000000000000000000000000000000000000000000000000000008152fd5b85517e7af3d5000000000000000000000000000000000000000000000000000000008152fd5b85517f4daee9d2000000000000000000000000000000000000000000000000000000008152fd5b85517fe72eafc3000000000000000000000000000000000000000000000000000000008152fd5b85517f2af07d20000000000000000000000000000000000000000000000000000000008152fd5b6024836011887f4e487b7100000000000000000000000000000000000000000000000000000000835252fd5b80fd5b509190346102ef57602091827ffffffffffffffffffffffffffffffffffffffffffffffffffffffffffffffffc36011261049a576104d9612130565b6104e1612278565b6104e9612604565b73ffffffffffffffffffffffffffffffffffffffff8091169081835285855260ff84842054166105dd578351927f70a0823100000000000000000000000000000000000000000000000000000000845230878501528584602481865afa9384156105d157819461059e575b5083156105765761056a949596505416906123e0565b60016002555160018152f35b8685517fe5a74490000000000000000000000000000000000000000000000000000000008152fd5b9093508581813d83116105ca575b6105b6818361230c565b810103126105c657519238610554565b8380fd5b503d6105ac565b508451903d90823e3d90fd5b8584517f80eb2a01000000000000000000000000000000000000000000000000000000008152fd5b503461018d5760207ffffffffffffffffffffffffffffffffffffffffffffffffffffffffffffffffc36011261018d578160209373ffffffffffffffffffffffffffffffffffffffff92358152600385522054169051908152f35b5050346102ef5780602092610674366121c5565b90825260068552828220908252845220549051908152f35b5050346102ef57817ffffffffffffffffffffffffffffffffffffffffffffffffffffffffffffffffc3601126102ef5773ffffffffffffffffffffffffffffffffffffffff60209254169051908152f35b509190346102ef57817ffffffffffffffffffffffffffffffffffffffffffffffffffffffffffffffffc3601126102ef5760015473ffffffffffffffffffffffffffffffffffffffff90818116928333036107b35750839450828454927fffffffffffffffffffffffff00000000000000000000000000000000000000009382858216178755167f8be0079c531659141344cd1fd0a4f28419497f9722a3daafe3b4186f6b6457e08680a3166001557fb3d55174552271a4f1aaf36b72f50381e892171636b3fb5447fe00e995e7a37b8280a380f35b8590517f2f02da58000000000000000000000000000000000000000000000000000000008152fd5b50913461049a576107eb36612189565b919373ffffffffffffffffffffffffffffffffffffffff96877f00000000000000000000000000000000000000000000000000000000000000001633141580610b89575b610b625762093a80809604868102968188041490151715610b36578482526020976003895280888420541615610b0e578615610ae7578583526007895287832087845289528783205415610abf5785835260068952878320878452895287832054610a97578415610a6f578583526005895287832080549068010000000000000000821015610a4357906108c891600182018155612231565b81549060031b907fffffffffffffffffffffffffffffffffffffffffffffffffffffffffffffffff8a831b921b1916179055858352600789528783208784528952878320548403610a1b57908291868a959452600685528883208884528552858984205560095416908161096a575b505050507f1d3b13bb6ce947c806a76a3476eafd33ec751e6ed2cbbdf7ab8503a4fb76a1ee918551908152a35160018152f35b9080929394503b1561018d578291868389936109c38c51988996879586947faee0838700000000000000000000000000000000000000000000000000000000865285016040919493926060820195825260208201520152565b03925af1908115610a1057509186917f1d3b13bb6ce947c806a76a3476eafd33ec751e6ed2cbbdf7ab8503a4fb76a1ee93610a01575b819381610937565b610a0a906122c9565b386109f9565b8651903d90823e3d90fd5b5086517f7b510d66000000000000000000000000000000000000000000000000000000008152fd5b6024856041867f4e487b7100000000000000000000000000000000000000000000000000000000835252fd5b5086517f85ac2b99000000000000000000000000000000000000000000000000000000008152fd5b5086517f4daee9d2000000000000000000000000000000000000000000000000000000008152fd5b5086517f48a0a74d000000000000000000000000000000000000000000000000000000008152fd5b5086517e7af3d5000000000000000000000000000000000000000000000000000000008152fd5b5086517fe72eafc3000000000000000000000000000000000000000000000000000000008152fd5b9060116024927f4e487b7100000000000000000000000000000000000000000000000000000000835252fd5b86517f2af07d20000000000000000000000000000000000000000000000000000000008152fd5b508782541633141561082f565b833461049a5760207ffffffffffffffffffffffffffffffffffffffffffffffffffffffffffffffffc36011261049a57610bce612130565b610bd6612278565b6009549073ffffffffffffffffffffffffffffffffffffffff80911691827fffffffffffffffffffffffff0000000000000000000000000000000000000000821617600955167f8352ba19c21cdb525381f325922bf54276532b75cd30d187ea8d8733d60018988380a380f35b833461049a57807ffffffffffffffffffffffffffffffffffffffffffffffffffffffffffffffffc36011261049a57610c7a612278565b8073ffffffffffffffffffffffffffffffffffffffff81547fffffffffffffffffffffffff000000000000000000000000000000000000000081168355167f8be0079c531659141344cd1fd0a4f28419497f9722a3daafe3b4186f6b6457e08280a380f35b5050346102ef57610cef366121c5565b92908152600560205281812090815484101561049a5750602092610d1291612231565b91905490519160031b1c8152f35b503461018d57817ffffffffffffffffffffffffffffffffffffffffffffffffffffffffffffffffc36011261018d57610d57612130565b9160243567ffffffffffffffff811161125957610d779036908401612158565b91909282156112325773ffffffffffffffffffffffffffffffffffffffff928386161561120a579391908694879388935b828510610de0575050505050169182151580610dd7575b610dc7578380f35b610dd0926123e0565b3880808380f35b50811515610dbf565b909192939694610df18885856126b6565b358a526006602052818a206020610e098a87876126b6565b01358b52602052818a2054156111e257610e78610e278986866126b6565b356020610e358b88886126b6565b013584610e438c89896126b6565b013591604060ff91600193600091825260086020528282209082526020528181208560081c8252602052205492161b16151590565b6111ba57610f9d8a89610f9887868e89610f47610e968786846126b6565b3592610f1b6020610ea88a89876126b6565b0135916060610ec68b8a8a610ebe83838c6126b6565b0135986126b6565b01359087519586946020860198899390927fffffffffffffffffffffffffffffffffffffffff000000000000000000000000926094969486526020860152604085015260601b16606083015260748201520190565b037fffffffffffffffffffffffffffffffffffffffffffffffffffffffffffffffe0810183528261230c565b51902094896020610f87610f69610f5f8988866126b6565b60808101906126f6565b989096610f778282876126b6565b35865260068452868620946126b6565b01358252602052205492369161234d565b61263d565b1561119257888a91610fb08a87876126b6565b358352600360205289611068858b8187205416956110258a8a84610ff088610fd98186866126b6565b35946020610fe88383886126b6565b0135946126b6565b013591604060ff91600193600091825260086020528282209082526020528181208560081c82526020522092161b8154179055565b61103f6060611035868d8d6126b6565b0135948b8b6126b6565b35815260076020528d6020611058848420928d8d6126b6565b01358252602052209182546123a4565b905561109f6110788b88886126b6565b358b6060611096602061108c848d8d6126b6565b0135928b8b6126b6565b01359185612757565b8985877f9a5376f7dcf8631c2b6249c9bec3d715cb97bdd4c82d92e55d147f6b4eea419760606110f1896110e7876110d881888a6126b6565b35966020610ebe83838c6126b6565b0135958c8c6126b6565b89519586520135602085015273ffffffffffffffffffffffffffffffffffffffff871660408501528c861693606090a48089169083821461117357508061115d575b50506111516001919660606111498b88886126b6565b01359061274a565b975b0193929190610da8565b906111699297916123e0565b8894886001611133565b9790506001925061118c915060606111498b88886126b6565b97611153565b8482517f09bde339000000000000000000000000000000000000000000000000000000008152fd5b8482517f646cf558000000000000000000000000000000000000000000000000000000008152fd5b8482517fbc68df3f000000000000000000000000000000000000000000000000000000008152fd5b5090517f9fabe1c1000000000000000000000000000000000000000000000000000000008152fd5b90517fb68370bb000000000000000000000000000000000000000000000000000000008152fd5b8480fd5b50913461049a5761126d366121f9565b92907f00000000000000000000000000000000000000000000000000000000000000009173ffffffffffffffffffffffffffffffffffffffff91828416330361143d5762093a808091048181029181830414901517156114115784825260209760038952838884205416156113ea5781156113c457858352600789528783208284528952878320541561139d57858352600689528783208284528952878320546113765750908691858252600789528282208183528952828220549086835260078a528383209083528952868383205586811161134e575b88835160018152f35b61136a9661135b916123a4565b948152600388522054166123e0565b38808080848180611345565b87517f4daee9d2000000000000000000000000000000000000000000000000000000008152fd5b87517f48a0a74d000000000000000000000000000000000000000000000000000000008152fd5b87517e7af3d5000000000000000000000000000000000000000000000000000000008152fd5b87517fe72eafc3000000000000000000000000000000000000000000000000000000008152fd5b60248260118a7f4e487b7100000000000000000000000000000000000000000000000000000000835252fd5b8787517f2af07d20000000000000000000000000000000000000000000000000000000008152fd5b5050346102ef576020906114ae61147b366121f9565b91604060ff91600193600091825260086020528282209082526020528181208560081c8252602052205492161b16151590565b90519015158152f35b50913461049a57817ffffffffffffffffffffffffffffffffffffffffffffffffffffffffffffffffc36011261049a578235906024359373ffffffffffffffffffffffffffffffffffffffff80861680960361018d57807f0000000000000000000000000000000000000000000000000000000000000000163303611644578383526003602052848320541661161d5784156115f65760209484838793867f6746344851206b5fc2dc76bcb3512131fd07c324969cd3ee2278192805477961965260038552828220847fffffffffffffffffffffffff0000000000000000000000000000000000000000825416179055838252845220805460ff8116156115c8575b50508451908152a25160018152f35b7fffffffffffffffffffffffffffffffffffffffffffffffffffffffffffffff0016600117905538806115b9565b83517ff84835a0000000000000000000000000000000000000000000000000000000008152fd5b83517f83d2396d000000000000000000000000000000000000000000000000000000008152fd5b5083517f2af07d20000000000000000000000000000000000000000000000000000000008152fd5b5050346102ef57817ffffffffffffffffffffffffffffffffffffffffffffffffffffffffffffffffc3601126102ef5760209073ffffffffffffffffffffffffffffffffffffffff600954169051908152f35b5050346102ef57806020926116d3366121c5565b90825260078552828220908252845220549051908152f35b50823461049a57602091827ffffffffffffffffffffffffffffffffffffffffffffffffffffffffffffffffc3601126102ef5792919235815260058352818120908251808584549182815201908194845286842090845b818110611793575050508161175891038261230c565b83519485948186019282875251809352850193925b82811061177c57505050500390f35b83518552869550938101939281019260010161176d565b825484529288019260019283019201611742565b509190346102ef57606090817ffffffffffffffffffffffffffffffffffffffffffffffffffffffffffffffffc36011261018d576117e3612130565b906024359460443567ffffffffffffffff8111611c14576118079036908301612158565b611812939193612604565b73ffffffffffffffffffffffffffffffffffffffff97888616928315611bec578215611bc4578897828a5260209a60038c52828b2054169a8a5b85811061186857508a6118608b8b8f6123e0565b600160025580f35b84611878829c9e9d9c888c6126b6565b3503611b9c57848b526006808352848c2083611895848a8e6126b6565b01358d528352848c205415611b74576118f08a866118ba858b88610fe88383886126b6565b01359088604060ff91600193600091825260086020528282209082526020528181208560081c8252602052205492161b16151590565b611b4c57866119c191610f98888f8f908f896119b18a868f968f86610f1b8e9361198f9361193b888e611932828a8f61192a83838d6126b6565b0135996126b6565b0135978d6126b6565b0135908c519586948b860198899390927fffffffffffffffffffffffffffffffffffffffff000000000000000000000000926094969486526020860152604085015260601b16606083015260748201520190565b519020996119a1610f5f8383886126b6565b9a909887528452868620946126b6565b013582528952205492369161234d565b15611b24578689868e9f8e9f9e888b91886119dd8985896126b6565b0135826119eb8a868a6126b6565b0135611a249187604060ff91600193600091825260086020528282209082526020528181208560081c82526020522092161b8154179055565b87898b611a3283878b6126b6565b0135948784526007825284842092611a4a918a6126b6565b0135825289522090815490611a5e916123a4565b905586611a6c868c866126b6565b0135611a779161274a565b9d8d8286898d8a611a8984838b6126b6565b013592611a9691896126b6565b013591611aa293612757565b898787611ab08884886126b6565b013594878b611ac08286856126b6565b013593611acc926126b6565b8a519283520135602082015273ffffffffffffffffffffffffffffffffffffffff9190911660408201527f9a5376f7dcf8631c2b6249c9bec3d715cb97bdd4c82d92e55d147f6b4eea419790606090a460010161184c565b8784517f09bde339000000000000000000000000000000000000000000000000000000008152fd5b8885517f646cf558000000000000000000000000000000000000000000000000000000008152fd5b8885517fbc68df3f000000000000000000000000000000000000000000000000000000008152fd5b8784517f27140a4b000000000000000000000000000000000000000000000000000000008152fd5b8490517fb68370bb000000000000000000000000000000000000000000000000000000008152fd5b8490517f9fabe1c1000000000000000000000000000000000000000000000000000000008152fd5b8580fd5b50913461049a57611c2836612189565b9193611c32612278565b62093a80809504858102958187041490151715611d9e578381526020966003885273ffffffffffffffffffffffffffffffffffffffff80888420541615610b0e578615610ae7578583526006895287832087845289528783205415611d76578415610a6f57908291868a9594526006855288832088845285528589842055868352600785528883208884528552888320611ccd85825461274a565b9055600954169081151580611d6d575b611d1457505050507f1d3b13bb6ce947c806a76a3476eafd33ec751e6ed2cbbdf7ab8503a4fb76a1ee918551908152a35160018152f35b9080929394503b1561018d578291868389936109c38c51988996879586947f68f6df5200000000000000000000000000000000000000000000000000000000865285016040919493926060820195825260208201520152565b50831515611cdd565b5086517f226e5a6a000000000000000000000000000000000000000000000000000000008152fd5b806011887f4e487b71000000000000000000000000000000000000000000000000000000006024945252fd5b5050346102ef57817ffffffffffffffffffffffffffffffffffffffffffffffffffffffffffffffffc3601126102ef576020905173ffffffffffffffffffffffffffffffffffffffff7f0000000000000000000000000000000000000000000000000000000000000000168152f35b50903461018d5760c07ffffffffffffffffffffffffffffffffffffffffffffffffffffffffffffffffc36011261018d578135602435916044356064359473ffffffffffffffffffffffffffffffffffffffff928387169687810361212c576084359460a43567ffffffffffffffff811161212857611ebb9036908601612158565b611ec6959195612604565b8a1561210057888c52602095600687528c8b87822091528752858d2054156120d85760008a81526008602081815260408084208f85528252808420928c901c8452919052902054600160ff8a161b166120b057611fa191610f988b928f89908f868f8f8f610f1b8f938694611f85948a51968795860198899390927fffffffffffffffffffffffffffffffffffffffff000000000000000000000000926094969486526020860152604085015260601b16606083015260748201520190565b51902096825260068d528282209082528c52205492369161234d565b1561208957509161204b8689897f9a5376f7dcf8631c2b6249c9bec3d715cb97bdd4c82d92e55d147f6b4eea419799989795858f61207e9984825260038a5282822054169861201e8c8787604060ff91600193600091825260086020528282209082526020528181208560081c82526020522092161b8154179055565b848252600781528282209086835252206120398582546123a4565b90556120468482896123e0565b612757565b519384938491604091949373ffffffffffffffffffffffffffffffffffffffff9160608501968552602085015216910152565b0390a4600160025580f35b83517f09bde339000000000000000000000000000000000000000000000000000000008152fd5b8286517f646cf558000000000000000000000000000000000000000000000000000000008152fd5b8286517fbc68df3f000000000000000000000000000000000000000000000000000000008152fd5b5083517f9fabe1c1000000000000000000000000000000000000000000000000000000008152fd5b8a80fd5b8880fd5b6004359073ffffffffffffffffffffffffffffffffffffffff8216820361215357565b600080fd5b9181601f840112156121535782359167ffffffffffffffff8311612153576020808501948460051b01011161215357565b7ffffffffffffffffffffffffffffffffffffffffffffffffffffffffffffffffc60809101126121535760043590602435906044359060643590565b7ffffffffffffffffffffffffffffffffffffffffffffffffffffffffffffffffc6040910112612153576004359060243590565b7ffffffffffffffffffffffffffffffffffffffffffffffffffffffffffffffffc606091011261215357600435906024359060443590565b80548210156122495760005260206000200190600090565b7f4e487b7100000000000000000000000000000000000000000000000000000000600052603260045260246000fd5b73ffffffffffffffffffffffffffffffffffffffff60005416330361229957565b60246040517f118cdaa7000000000000000000000000000000000000000000000000000000008152336004820152fd5b67ffffffffffffffff81116122dd57604052565b7f4e487b7100000000000000000000000000000000000000000000000000000000600052604160045260246000fd5b90601f7fffffffffffffffffffffffffffffffffffffffffffffffffffffffffffffffe0910116810190811067ffffffffffffffff8211176122dd57604052565b90929167ffffffffffffffff84116122dd578360051b60405192602080946123778285018261230c565b809781520191810192831161215357905b8282106123955750505050565b81358152908301908301612388565b919082039182116123b157565b7f4e487b7100000000000000000000000000000000000000000000000000000000600052601160045260246000fd5b9190916040519260208401927fa9059cbb00000000000000000000000000000000000000000000000000000000845273ffffffffffffffffffffffffffffffffffffffff8092166024860152604485015260448452608084019167ffffffffffffffff92858110848211176122dd576040521692600080938192519082875af13d15612557573d91821161252a57906124b991604051916124a960207fffffffffffffffffffffffffffffffffffffffffffffffffffffffffffffffe0601f840116018461230c565b82523d84602084013e5b84612564565b908151918215159283612502575b5050506124d15750565b602490604051907f5274afe70000000000000000000000000000000000000000000000000000000082526004820152fd5b8192935090602091810103126102ef57602001519081159182150361049a57503880806124c7565b6024837f4e487b710000000000000000000000000000000000000000000000000000000081526041600452fd5b6124b991506060906124b3565b906125a3575080511561257957805190602001fd5b60046040517f1425ea42000000000000000000000000000000000000000000000000000000008152fd5b815115806125fb575b6125b4575090565b60249073ffffffffffffffffffffffffffffffffffffffff604051917f9996b315000000000000000000000000000000000000000000000000000000008352166004820152fd5b50803b156125ac565b60028054146126135760028055565b60046040517f3ee5aeb5000000000000000000000000000000000000000000000000000000008152fd5b90926000925b82518410156126ad576020808560051b850101519160008382106000146126a057506000525260406000205b927fffffffffffffffffffffffffffffffffffffffffffffffffffffffffffffffff81146123b15760010192612643565b916040938352522061266f565b91509291501490565b91908110156122495760051b810135907fffffffffffffffffffffffffffffffffffffffffffffffffffffffffffffff6181360301821215612153570190565b9035907fffffffffffffffffffffffffffffffffffffffffffffffffffffffffffffffe181360301821215612153570180359067ffffffffffffffff821161215357602001918160051b3603831361215357565b919082018092116123b157565b909273ffffffffffffffffffffffffffffffffffffffff9182600954169384612783575b505050505050565b843b1561215357600094608493869260405198899788967f39f474de0000000000000000000000000000000000000000000000000000000088521660048701526024860152604485015260648401525af180156127f8576127e9575b808080808061277b565b6127f2906122c9565b386127df565b6040513d6000823e3d90fdfea26469706673582212208537fe2f84ba411b64189e77ce46c9f1137a8445793b3443ef6f573819a478e464736f6c63430008140033",
  "linkReferences": {},
  "deployedLinkReferences": {}
}